:020000040800F2
:1000000060080020D91100084512000847120008B6
:100010004B1200084F1200085312000800000000A5
:10002000000000000000000000000000571200085F
:1000300059120008000000005B120008F9120008C5
:10004000EF110008EF110008EF110008EF11000890
:10005000EF110008EF110008EF110008EF11000880
:10006000EF110008EF110008EF110008EF11000870
:10007000EF110008EF110008EF110008EF11000860
:10008000EF110008EF110008EF110008EF11000850
:10009000EF110008EF110008EF110008EF11000840
:1000A000EF110008EF110008EF110008EF11000830
:1000B000EF110008EF110008EF110008EF11000820
:1000C000EF110008EF110008EF110008EF11000810
:1000D000EF11000811140008EF110008EF110008DB
:1000E000EF110008EF110008EF110008DFF80CD045
:1000F00002F0D8F800480047F51100086008002019
:1001000000210020674A126842F48032654B1A6071
:1001100000BF644A126802F40030491C10B9B1F5FE
:10012000A06FF6D15F4A126812F4003F01D001209F
:1001300000E00020012842D15B4A126842F0100220
:10014000594B1A601A46126822F003021A601A46C6
:10015000126842F002021A60524A5268514B5A60C9
:100160001A4652685A601A46526842F480625A60CF
:100170001A46526822F47C125A601A46526842F4B7
:10018000E8125A601A46126842F080721A6000BF84
:10019000444A126812F0007FFAD0424A526822F0B4
:1001A0000302404B5A601A46526842F002025A60FB
:1001B00000BF3C4A526802F00C02082AF9D170478D
:1001C00010B5FFF79DFF10BD10B53648006840F030
:1001D0000100344908600846406834490840314904
:1001E000486008460068324908402E4908600846C1
:1001F000006820F4802008600846406820F4FE0073
:1002000048604FF41F008860FFF7DAFF4FF000608E
:100210002849086010BD10B5002100200022214BA4
:100220005B6803F00C0121B1042906D0082928D10C
:1002300007E0214B214C236027E01F4B1F4C23601C
:1002400023E0184B5B6803F47010164B5B6803F4F3
:100250008032022303EB904022B9194B4343174CE1
:1002600023600DE00F4B5B6813F4003F04D0144B88
:100270004343124C236003E00F4B43430F4C236076
:1002800003E00D4B0D4C236000BF00BF054B5B68C6
:10029000C3F303130B4CE15C084B1B68CB40074CCA
:1002A000236010BD00100240002002400000FFF853
:1002B000FFFFF6FE08ED00E000127A0000000020CB
:1002C00000093D000400002010B50446CA488442DD
:1002D00008D10121042000F024FB0021042000F0BB
:1002E00020FB46E0C548844208D10121082000F0E7
:1002F00018FB0021082000F014FB3AE0C0488442BB
:1003000008D10121102000F00CFB0021102000F08A
:1003100008FB2EE0BB48844208D10121202000F0D8
:1003200000FB0021202000F0FCFA22E0B6488442C5
:1003300008D10121402000F0F4FA0021402000F013
:10034000F0FA16E0B148844208D10121802000F083
:10035000E8FA0021802000F0E4FA0AE0AC48844288
:1003600007D10121801500F0DCFA0021A01500F072
:10037000D8FA10BD10B50121084600F0D2FA0021CC
:10038000012000F0CEFA10BD2DE9F0410246002513
:100390000026002000230024002791F803C00CF061
:1003A0000F0591F803C01CF0100F03D091F802C0A4
:1003B0004CEA0505B1F800C01CF0FF0F31D01468FD
:1003C00000202BE04FF0010C0CFA00F3B1F800C054
:1003D0000CEA03069E4220D183004FF00F0C0CFA6A
:1003E00003F7BC4305FA03FC4CEA040491F803C08C
:1003F000BCF1280F06D14FF0010C0CFA00FCC2F83A
:1004000014C00AE091F803C0BCF1480F05D14FF0C9
:10041000010C0CFA00FCC2F810C0401C0828D1D313
:100420001460B1F800C0BCF1FF0F34DD5468002047
:100430002EE000F1080C4FF0010808FA0CF3B1F8B7
:1004400000C00CEA03069E4221D183004FF00F0C3E
:100450000CFA03F7BC4305FA03FC4CEA040491F8D8
:1004600003C0BCF1280F05D100F1080C08FA0CF804
:10047000C2F8148091F803C0BCF1480F07D100F115
:10048000080C4FF0010808FA0CF8C2F81080401C64
:100490000828CED35460BDE8F0814FF6FF7101808B
:1004A000022181700421C1707047024600209368C8
:1004B0000B4201D0012000E000207047014688680F
:1004C00080B2704702460020D3680B4201D0012061
:1004D00000E0002070470146C86880B270470161A3
:1004E0007047416170470AB1016100E041617047A6
:1004F000C16070474FF480320A438261816182613A
:1005000082698269704702460020424B18684FF6A4
:100510008073184040EA021008433E4B1860704751
:100520003D49C8617047F0B50A4600230024002108
:10053000002500F00046B6F1004F02D1354EF169BA
:1005400001E0344E7168C0F3034583B200F44016F5
:10055000B6F5401F08D121F070612E4E766826F066
:1005600070662C4F7E6012E000F48016B6F5801F96
:1005700006D1032606FA05F4A14341F0706106E0B6
:10058000460D360103FA06F6B14341F0706122B11F
:10059000460D360103FA06F6314300F00046B6F187
:1005A000004F02D11B4EF16101E01A4E7160F0BDA7
:1005B00030B500228B071C0F0F2303FA04F2154BF2
:1005C00008338C1053F824309343124C08348D10A8
:1005D00044F8253023468C1053F824308C07240F20
:1005E00000FA04F423430B4C08348D1044F82530F2
:1005F00030BD0A490860704700080140000C014006
:10060000001001400014014000180140001C01408E
:10061000002001400000014000002042DC00204298
:10062000DB48006840F00100D9490860084640688E
:10063000D8490840D649486008460068D64908406D
:10064000D34908600846006820F480200860084606
:10065000406820F4FE0048604FF41F008860704737
:10066000CB49096821F48031C94A116011460968F3
:1006700021F480211160B0F5803F03D0B0F5802FC8
:100680000ED106E0C249096841F48031C04A1160C8
:1006900007E0BF49096841F4A021BD4A116000E0AC
:1006A00000BF00BF704710B50146002200230020A4
:1006B0004A11012A02D1B64C236806E0022A02D16F
:1006C000B34C236A01E0B24C636A01F01F020124BB
:1006D00094401C4201D0012000E0002010BD70B504
:1006E00000240025002600BF3120FFF7DCFF06466E
:1006F000641CB4F5A06F01D0002EF5D03120FFF7B7
:10070000D2FF08B1012500E00025284670BD014652
:1007100000209F4A106820F0F80040EAC1001060F5
:1007200070479E490860704702460020984B586801
:1007300020F47C1042EA01031843954B586070473F
:1007400096490866704701460020914A506820F09B
:1007500003000843506070478D48406800F00C006B
:100760007047014600208A4A506820F0F000084394
:100770005060704701460020854A506820F4E060D0
:1007800008435060704701460020814A506820F4B9
:10079000605040EAC1005060704729B17C4A527AEB
:1007A00002437B4B5A7206E0794A527AC343DBB26A
:1007B0001A40774B5A727047794908607047014672
:1007C0000020734A506820F440400843506070474E
:1007D0000021744A11706E4A82F82010012802D05C
:1007E000042808D103E001216E4A117004E00521BC
:1007F0006C4A117000E000BF00BF70476A49086092
:1008000070476349096A0143614A11627047674949
:100810000860704730B500210022002400235C4DA1
:100820006D6805F00C0121B1042905D0082923D1F8
:1008300005E05F4D056022E05D4D05601FE0544D11
:100840006D6805F47012524D6D6805F48034022510
:1008500005EB92421CB9574D554305600BE04C4DDA
:100860006D6815F4003F03D0524D5543056002E01A
:100870004F4D5543056002E04D4D056000BF00BF80
:10088000434D6D6805F0F00109094B4D6B5C05683F
:10089000DD4045603E4D6D6805F4E061090A464D56
:1008A0006B5C4568DD408560394D6D6805F46051CD
:1008B000C90A414D6B5C4568DD40C560344D6D68CB
:1008C00005F44041890B3D4D6B5CC568B5FBF3F504
:1008D000056130BD29B12E4A526902432C4B5A6141
:1008E00004E02B4A52698243294B5A61704729B16F
:1008F000274A92690243264B9A6104E0244A92698E
:100900008243234B9A61704729B1214AD26902433D
:100910001F4BDA6104E01E4AD26982431C4BDA6144
:10092000704729B11A4AD2680243194BDA6004E0D1
:10093000174AD2688243164BDA60704729B1144ACD
:1009400012690243124B1A6104E0114A1269824390
:100950000F4B1A6170471A49086070470F49C86405
:1009600070470B49C87170470948406A40F0807071
:1009700007494862704701460020054A92680A42CA
:1009800001D0012000E000207047014988727047C3
:10099000001002400000FFF8FFFFF6FE0000424298
:1009A000D800424220100240800442423C044242AD
:1009B00000127A0000093D001400002024000020ED
:1009C0004004424236490143364A1160704770B5CF
:1009D000002100230F22C4784CB3324C246804F465
:1009E000E064C4F5E0644FEA1421C1F1040322FA83
:1009F00001F2447804FA03F1847804EA020444EA38
:100A000001014FEA0111284C0678A155047804F041
:100A10001F054FF0010404FA05F405784FEA651547
:100A20004FF0E02606EB8505C5F8004109E00478A3
:100A300004F01F050124AC401C4D0678761145F8E2
:100A4000264070BD1A4A0A4002431A4B1A6070478A
:100A500041B1194A126842EA00024FF0E023C3F89C
:100A6000102D07E0144A126822EA00024FF0E0233A
:100A7000C3F8102D7047042808D14FF0E021096910
:100A800041F004014FF0E022116107E04FF0E02156
:100A9000096921F004014FF0E02211617047000064
:100AA0000000FA050CED00E000E400E080E100E069
:100AB00080FFFF1F08ED00E010ED00E010B50446D8
:100AC000BF48844208D101218014FFF72AFF00218A
:100AD000A014FFF726FF16E0BA48844208D101218E
:100AE0000014FFF72BFF00212014FFF727FF0AE077
:100AF000B548844207D10121C013FFF71FFF002131
:100B0000E013FFF71BFF10BD10B50022028802F4AE
:100B100041520B884C8823438C882343CC88234341
:100B20000C8923434C8923438C892343CC89234359
:100B30001A430280838B4FF2FF74234083830B8A16
:100B4000038210BD2DE9F04F85B005460C464FF0ED
:100B5000000902274FF000084FF0010B0026B246B3
:100B6000A88B4FF240010840A88302202884B5F8E2
:100B70001C90A068022801D100BF36E0A08810B9FF
:100B80004FF0010B01E04FF0020B8E48854200D17F
:100B900000E000BF6846FFF73DFEDDF800A0E088FA
:100BA000B0F5007F0AD14FEA1A2000EB8000400028
:100BB000A168B0FBF1F0401D86B20BE04FEA4B108C
:100BC000BAFBF0F000EB80004000A168B0FBF1F050
:100BD000401D86B20A20B6FBF0F606F00108A6EB2F
:100BE0000800C0F34F074FEA0828022F01DBFF2F50
:100BF00002DD02274FF00008E08840EA0800384391
:100C00002884A088A1890843618808432188084373
:100C100040F4006040EA0909A5F81C9005B0BDE861
:100C2000F08F0021018041808180C180018141815C
:100C30008181C181072101827047002101804180AB
:100C40008180C1800221816000218181704721B1B2
:100C5000028842F04002028004E002884FF6BF732F
:100C60001A400280704721B1828B42F480628283F5
:100C700004E0828B4FF6FF331A408283704770B5D1
:100C8000002400230C110125A540ABB21AB18588C0
:100C90001D43858004E08588DE43B6B235408580FB
:100CA00070BD10B51AB183880B43838004E083883C
:100CB000CC43A4B22340838010BD8181704701469C
:100CC00088897047A1F57E42FF3A04D0028842F439
:100CD0008072028004E002884FF6FF631A400280AF
:100CE000704721B1828842F00402828004E0828849
:100CF0004FF6FB731A408280704702884FF2FF73F1
:100D00001A40028002880A4302807047018841F439
:100D100080510180704721B1028842F40052028064
:100D200004E002884DF6FF731A40028070470246C5
:100D30000020012901D0108B00E0908A7047014605
:100D4000088A7047B1F5804F04D1028842F480428E
:100D5000028004E002884BF6FF731A40028070475D
:100D60000246002013890B4201D0012000E0002040
:100D70007047CA4302817047F0B502460020002444
:100D80000023002501F00F070126BE40B4B20B116D
:100D900001269E40B3B2968806EA030516892642CC
:100DA00002D00DB1012000E00020F0BD10B50022FE
:100DB00001F00F040123A3409AB2D343038110BD75
:100DC0000030014000380040003C004010B50446AF
:100DD000FC48844209D101218803FFF7A2FD0021CC
:100DE0004FF48040FFF79DFD32E0F748844209D17F
:100DF00001214804FFF7A2FD00214FF40030FFF766
:100E00009DFD25E0F148844209D101218804FFF7C6
:100E100095FD00214FF48020FFF790FD18E0EC488D
:100E2000844209D10121C804FFF788FD00214FF455
:100E30000020FFF783FD0BE0E648844208D1012142
:100E40000805FFF77BFD00214FF48010FFF776FDCA
:100E500010BD2DE9F04786B005460E460024A24697
:100E600000BFA1460027B08900B100BF2F462C8AE1
:100E70004CF6FF700440F08804432C82AC894EF697
:100E8000F3100440B0883189084371890843044352
:100E9000AC81AC8A4FF6FF400440B0890443AC8279
:100EA00001A8FFF7B7FCC748874202D1DDF810A0C0
:100EB00001E0DDF80CA0A88910F4004F08D00AEB7F
:100EC000CA0000EB0A1031684900B0FBF1F807E0F6
:100ED0000AEBCA0000EB0A1031688900B0FBF1F898
:100EE0006420B8FBF0F004012009642101FB1089A3
:100EF000A88910F4004F08D0322000EBC900B0FBE5
:100F0000F1F000F00700044308E0322000EB091084
:100F10006421B0FBF1F000F00F0004432C8106B017
:100F2000BDE8F0874FF41651016000218180C18037
:100F300001810C21418100218181704710B5024659
:100F40000020108A4FF2FF0318400B884C8823437F
:100F50008C882343CC8823431843108210BD002182
:100F6000018041808180C180704721B1828942F433
:100F70000052828104E082894DF6FF731A4082811B
:100F80007047F0B503460024002600250020A1F597
:100F900010676A3F00D100BF1846C1F3421401F048
:100FA0001F06012707FA06F5012C01D10C3004E0D9
:100FB000022C01D1103000E014301AB107682F4321
:100FC000076002E00768AF430760F0BD10B51AB1D3
:100FD000838A0B43838204E0838ACC43A4B22340F8
:100FE000838210BD028A4FF6F0731A400282028A91
:100FF0000A430282704782894FF2FF731A4082814E
:1010000082890A438281704721B1828942F00202BB
:10101000828104E082894FF6FD731A408281704715
:10102000028A4FF6DF731A400282028A0A43028262
:10103000704721B1028A42F48042028204E0028AAF
:101040004BF6FF731A4002827047C1F30802828098
:10105000704701468888C0F308007047818941F0D5
:10106000010181817047028BD2B20283028B42EA76
:10107000012202837047028B02F47F420283028BBB
:101080000A430283704721B1828A42F020028282A1
:1010900004E0828A4FF6DF731A408282704721B1E2
:1010A000828A42F01002828204E0828A4FF6EF7355
:1010B0001A408282704721B1828A42F008028282FD
:1010C00004E0828A4FF6F7731A408282704721B19A
:1010D000828942F40042828103E08289C2F30E02D7
:1010E0008281704721B1828A42F40062828204E0E8
:1010F000828A4FF2FF731A4082827047828A4FF6CB
:10110000FB731A408282828A0A438282704721B12D
:10111000828A42F00202828204E0828A4FF6FD73E4
:101120001A408282704702460020B1F5007F00D14C
:1011300000BF13880B4201D0012000E0002070475F
:1011400001F40072B2F5007F00D100BFCA430280F3
:10115000704770B502460024002300250020A1F549
:1011600010666A3E00D100BFC1F3421501F01F03B3
:10117000012606FA03F3012D02D19689334006E0D9
:10118000022D02D1168A334001E0968A33400C12B8
:10119000012606FA04F41688344013B10CB101207C
:1011A00000E0002070BD10B500220023A1F51064FE
:1011B0006A3C00D100BF0A1201249440A3B2DC4370
:1011C000048010BD00380140004400400048004049
:1011D000004C00400050004005480047FEE7FEE795
:1011E000FEE7FEE7FEE7FEE7FEE7FEE7FEE7FEE7D7
:1011F000ED000008FEF7E8FF00F030F800F0C5F859
:10120000642000F06EF806A001F05EF800F01AFB12
:1012100008A001F059F800F077FE00BFFEE70000DB
:10122000B4AEBFDAB3F5CABCBBAFB3C9B9A6210A25
:1012300000000000535049B3F5CABCBBAFB3C9B9F5
:10124000A6210A00704700BFFEE700BFFEE700BF0F
:10125000FEE700BFFEE770477047704700BF2B49AD
:1012600009682B4AB1FBF2F0B0F1807F01D3012174
:101270001CE020F07F41491E4FF0E022516100BF89
:101280005117002905DA0F210901224A0B23D154F5
:1012900004E00F210901204A5317D15400BF002157
:1012A0004FF0E02291610721116100210029D6D180
:1012B0004FF0E020006920F001004FF0E0210861CC
:1012C0007047164908604FF0E021096941F00101BB
:1012D0004FF0E022116100BF104909680029FBD1DD
:1012E000704700B5034604E04FF47A70FFF7E9FF5A
:1012F0005B1E002BF8D100BD0848006820B10748EC
:101300000068401E0549086070470000000000208A
:1013100040420F0018ED00E000E400E0280000204B
:1013200008B518208DF803004FF40070ADF80000E8
:1013300003208DF8020069464148FFF725F808BDF3
:101340001CB504208DF807000002ADF8040001A9C7
:101350003B48FFF719F84FF4A060FFF733FB252057
:101360008DF8000001208DF8030003208DF80100A6
:1013700001208DF802006846FFF729FB012240F2A8
:1013800025513048FFF7FDFD1CBD1FB52D48FFF767
:101390001DFD012144F20400FFF7A9FA4FF4E130EA
:1013A00000900020ADF80C00BDF80A0040F00400E9
:1013B000ADF80A00BDF80A0040F00800ADF80A00D8
:1013C0000020ADF80800ADF80600ADF8040069464D
:1013D0001C48FFF73EFDFFF7A3FFFFF7B1FF012118
:1013E0001848FFF7C2FD1FBD70B504460D46A1B2F7
:1013F0001448FFF72AFE00BF40211248FFF793FE72
:101400000128F9D140210F48FFF79AFE204670BD10
:1014100010B500BF40F225510A48FFF79AFE012897
:10142000F8D10848FFF715FE0446214606A000F053
:101430004BFF40F225510348FFF782FE10BD00002C
:101440000008014000380140CAD5B5BDB5C4CAFD89
:10145000BEDDCAC7A3BA2563200A000070B50546E1
:101460000C4600261020F249086004F01F0040EAF4
:101470000506304600F030FAFF2000F02DFA06464F
:1014800014F0800F03D0FF2000F026FA064610204B
:10149000E8490860304670BD2DE9F04104460D462C
:1014A000164600271020E249086005F01F0040EAB8
:1014B0000407384600F010FA3746384600F00CFAB8
:1014C0001020DD49C1F81008BDE8F08170B505466F
:1014D0000C461020D64908604FF03A0000F0FCF9A5
:1014E00005E06D1E002000F0F7F92070641C002D4F
:1014F000F7D1002020701020CE49086070BD70B573
:1015000004460D461020CA4908604FF07A0000F0EA
:10151000E3F904E0641E287800F0DEF96D1C002C6D
:10152000F8D11020C349086070BD10B5044604F01E
:101530006000C249097888420ED003221F21A020F2
:10154000FFF7AAFFC4F341121F218020FFF7A4FF79
:1015500004F06000B949087010BD10B5044620467B
:10156000FFF7E3FF21460020FFF778FF10BD70B5BD
:1015700004460D462046FFF7D8FF2A462146402064
:10158000FFF78AFF70BD70B505460C462946D4208A
:10159000FFF7EDFFE1B2D620FFF7E9FFC4F3072123
:1015A000D720FFF7E4FF00BFEA20FFF7D6FF10F0D7
:1015B000010FF9D170BD10B5044604F00701752084
:1015C000FFF7D5FF10BD10B50446102099490860FB
:1015D0004FF0FF024FF000011046FFF75DFF0020C3
:1015E0009749086000210820FFF7C1FF002109206A
:1015F000FFF7BDFF00210C20FFF7B9FF00210D20F0
:10160000FFF7B5FFFE210A20FFF7B1FF19210B20DC
:10161000FFF7ADFFFF210420FFF7A9FF19210520E7
:10162000FFF7A5FFFF210620FFF7A1FF1F210720DD
:10163000FFF79DFFB0213820FFF799FF3F212820B9
:10164000FFF795FF30212920FFF791FFF921302086
:10165000FFF78DFFF7213120FFF789FF0D21C02013
:10166000FFF785FF0021C120FFF781FF3322C22150
:101670008020FFF711FF1221C620FFF778FF0C2111
:10168000C720FFF774FF1521C420FFF770FFDC218E
:10169000CA20FFF76CFF0521CB20FFF768FF2178F8
:1016A000E420FFF764FF6178E520FFF760FFA17891
:1016B000E220FFF75CFFE178E320FFF758FF217994
:1016C000E020FFF754FF6179E120FFF750FF4FF46E
:1016D00080710020FFF757FF4FF480711020FFF753
:1016E00052FF1F20FFF721FFC0221B218020FFF7A0
:1016F000D3FE04221F218020FFF7CEFE10BD10B5BF
:101700007220FFF72AFF10BD70B504460D46FF2179
:101710000220FFF72CFF19210320FFF728FFFF20ED
:101720002044C1B20620FFF722FF41F6FF102044FB
:10173000C0F307210720FFF71AFF002211467A2085
:10174000FFF7AAFE29462046FFF7D9FE08221F21EF
:101750008020FFF7A1FE1C20FFF7FFFE10F0020F14
:1017600004D008221F21A020FFF796FE70BD2DE9AE
:10177000F04105460F463920FFF7EFFE10B9002073
:10178000BDE8F0812E480068C1B20020FFF7EFFEEF
:101790002B480068C0F307210120FFF7E8FE002175
:1017A0003A20FFF75BFE2649086000213A20FFF748
:1017B00055FE2349096841EA0020214908600021BB
:1017C0003A20FFF74BFE044600213A20FFF746FE81
:1017D00044EA0024241F00213A20FFF73FFE06467A
:1017E00000213A20FFF73AFE46EA0026681EA04292
:1017F00000D26C1E16F0800F01D1002403E03946A0
:101800002046FFF763FE0E480068C1B20C20FFF7C8
:10181000AEFE0B480068C0F307210D20FFF7A7FEBE
:1018200040221E218020FFF737FE2046A8E7000057
:101830001408014010080140000001402C00002065
:101840003000002000B587B0012141F20400FFF70D
:101850004EF8E020ADF8180001208DF81A0018208D
:101860008DF81B0006A92948FEF78EFD1020ADF863
:10187000180001208DF81A0010208DF81B0006A911
:101880002248FEF781FD10212048FEF728FE0020A7
:10189000ADF804004FF48270ADF806000020ADF8FA
:1018A0000800ADF80A00ADF80C004FF40070ADF878
:1018B0000E001020ADF810000020ADF81200072037
:1018C000ADF8140001A91248FFF71EF901211048D4
:1018D000FFF7BDF907B000BD10B5044600BF0221F7
:1018E0000B48FFF73DFA0028F9D021460848FFF7DA
:1018F000E4F900BF01210648FFF732FA0028F9D0C9
:101900000348FFF7DCF9C0B210BD00000008014039
:101910000030014030B504460B460021012A03D1B6
:101920001131A3F108000144022A03D1891DA3F15A
:101930000800014406E06078257840EA052001446B
:10194000A41C9B1E012BF6D813B1207801EB0021BB
:1019500002E088B200EB1141080CFAD14FF6FF7596
:1019600081EA050030BD30B503460020FF4C2270EF
:1019700004E00C5CFE4D2C54441CE0B20428F8DB5F
:10198000002004E01C5CFB4D2C54441CE0B20628F3
:10199000F8DB30BD10B502460B460021292B01D2E1
:1019A000002010BD107B082802D1507B062801D0F2
:1019B0000020F6E70AE001F12600105CEC4C645CC4
:1019C000A04201D00020ECE7481CC1B20429F2DBA0
:1019D0000120E6E710B502460B4600212A2B01D272
:1019E000002010BD107B082801D1507B08B10020D9
:1019F000F7E7907B452801D00020F2E70AE001F1EB
:101A00001E00105CDA4C645CA04201D00020E8E7C4
:101A1000481CC1B20429F2DB0120E2E701460020A4
:101A200008E0821D8A5C0A54D24A135C821D8B54E2
:101A3000421CD0B20628F4DB704730B504460020C3
:101A40002076607640202075002060754020A075CB
:101A50000022142104F10E00FFF75CFF0546280A5E
:101A60002076657630BD30B5054600240BE004F1E4
:101A70001A00295C001D2954BD48015D04F11A00BB
:101A80002954601CC4B2042CF1DB2846FFF7D5FFB3
:101A900030BDF0B50C46002109E001F12206875D5A
:101AA000B61C87550027B61E87554E1CF1B2022979
:101AB000F3DBAE4E367880F82360042112E001F1AA
:101AC0002506865D344401F12906855D845513B1F0
:101AD000361F855503E0002701F125068755240AA6
:101AE0004E1EF1B20029EADC83B9002600F8266F09
:101AF0004670A14E367886700026C670A0F126008A
:101B00009D4E367806F102069B4F3E70002680F807
:101B1000326080F833608AB1022600F12E0006722E
:101B20004FF0040646724FF0050686724FF08006AD
:101B3000C6724FF0600600F82E6902E0502680F869
:101B40002E60F0BD70B5054600242846FFF766FFFD
:101B500000202875022068750BE004F11600295C4E
:101B60000A3029548348015D04F116002954601C91
:101B7000C4B2062CF1DB00240BE004F11C00295C4C
:101B80000A3029547A48015D04F11C002954601C74
:101B9000C4B2042CF1DB29462A20FFF7B5FD70BD45
:101BA00070B504460D462046FFF738FF2046FFF784
:101BB0005AFF002084F8220094F82400F72804DD5E
:101BC00094F82500401C84F8250094F8240008307F
:101BD00084F8240021462846FFF796FD70BD2DE9C4
:101BE000F0470446894615461F4600262046FFF763
:101BF00015FF05F11C06300A207466742046FFF7B5
:101C000032FF380A04F8240F6770280AA07005F123
:101C10000800E070002020716071A4F1240405E048
:101C200019F8061006F12A002154761CAE42F7D3AB
:101C300005F11001012204F11A00FFF76BFE804646
:101C40004FEA182084F8280084F8298005F12A003A
:101C50002146FFF759FDBDE8F08770B504462046E0
:101C6000FFF7DCFE002020742C2060742046FFF774
:101C7000FAFE122084F82F0000230122114620468C
:101C8000FFF707FF0222202104F11A00FFF742FEAE
:101C90000546280A84F8320084F8335021463A2059
:101CA000FFF732FD70BD3548006818B13448006850
:101CB000223070470020FCE7027C417C62F31F2148
:101CC0002E4A1160114609681439116090F82E10DF
:101CD000091189002A4A1160284909681268891A7D
:101CE000264A11601146096809B900211160704740
:101CF00010B5034603E001F136001C54491C12F8EC
:101D0000014B002CF7D1084610BD10B5034605E085
:101D1000147801F136001C54491C521C107800281C
:101D2000F6D1084610BD70B504462046FFF776FE92
:101D3000102084F82F001148006830B901230022D8
:101D400019462046FFF7A5FE06E0012300220B48B6
:101D500001682046FFF79DFE2825280A2074657437
:101D60002046FFF780FE02221C210BE034000020F9
:101D70004700002041000020400000203C000020DF
:101D80003800002004F11A00FFF7C4FD0546280AB8
:101D900084F8320084F8335021463620FFF7B4FC33
:101DA00070BD70B504460D46192084F82F0005F16A
:101DB0002806300A207466742046FFF73EFE002095
:101DC00084F8320084F8330005F11C01022204F18A
:101DD0001A00FFF79FFD0646300A84F8320084F8A7
:101DE000336005F136002146FFF78EFC70BD000020
:101DF00010B5044605222146B64800F043FA08B95A
:101E0000012010BD0020FCE770B5044600252046E7
:101E1000FFF7EEFF08B9012070BD07E020782F28FA
:101E200001D1641C0CE0681CC5B2641C207838B178
:101E30000A2D05DA20782C2802DD20787B28EDDBBE
:101E400000BF20783A2806DA20782F2803DD207892
:101E50003038C0B2E0E70220DEE770B506460C4637
:101E60009DA200213046FFF743FF0546AAA229465E
:101E70003046FFF73DFF054634B1AEA22946304655
:101E8000FFF736FF054605E0B3A229463046FFF7C7
:101E90002FFF0546B1A229463046FFF729FF054628
:101EA000B34A29463046FFF730FF0546894A29469E
:101EB0003046FFF72AFF0546AEA229463046FFF717
:101EC00017FF0546AA4A29463046FFF71EFF05467A
:101ED000804A29463046FFF718FF054634B1AFA2C5
:101EE00029463046FFF704FF054605E0B0A2294623
:101EF0003046FFF7FDFE0546B24A29463046FFF759
:101F0000F7FE0546284670BD00250026AE48FFF7BF
:101F10005AFB40F276411420FFF735FBAB480068CE
:101F2000C2B2AB49A848FFF71EFDAAA000F0CCF949
:101F3000CEE0AD4940F2DC50FFF719FC8046B8F125
:101F4000000F00D1C4E04146A748FFF723FD18B1B8
:101F5000A548FFF7F7FDBBE04146A348FFF73AFD70
:101F600000B9B5E0A048C07D012809D19E4890F88D
:101F70002200082804D141469B48FFF711FEA7E044
:101F80009948C07D062879D1974890F82400A8BBCD
:101F9000954890F825008D49096888426ED192488D
:101FA00090F82F0010F0020F03D08F48FFF755FE76
:101FB0008EE08D4890F82F0010F0100F5ED08A4808
:101FC000FFF77AFEFFF76FFE04464CB9864890F89B
:101FD0002F0010F0010F02D08348FFF7A4FE77E036
:101FE00081480119042281A000F04CF938B181A286
:101FF00000217D48FFF77CFE804637E03EE07A4ACC
:10200000201D111802228AA000F03CF9C0B989A253
:1020100000217548FFF76CFE804692A24146724847
:10202000FFF766FE8046524A41466F48FFF76DFE55
:1020300080468FA241466C48FFF75AFE804615E065
:10204000694A611D5018FFF7DFFE0746012F07D1CF
:102050005C4A583200216448FFF74AFE804605E09A
:1020600001216148FFF7F9FE804600BF5E48FFF797
:102070005AFE41465C48FFF794FE29E05A48C07D6D
:10208000112824D1584890F8240004281FD156481C
:1020900090F82500B0281AD1534890F826603602EF
:1020A00090F827003044A0F10806002506E005F16D
:1020B0002A004D49085C09F805006D1CB542F6D3AD
:1020C0006F483246494603684748FFF788FD00BF1E
:1020D0002FE7000074000020485454502F312E3058
:1020E00020323030204F4B0D0A436F6E74656E7492
:1020F0002D547970653A20746578742F68746D6C0E
:102100000D0A507261676D613A206E6F2D636163D5
:1021100068650D0A0D0A00003C63656E7465723EC9
:102120003C703EB5C6B9E2D7B4CCACD6B8CABE3A5C
:10213000200000003C666F6E7420636F6C6F723D10
:102140002223303046463030223E20C1C13C2F662B
:102150006F6E743E00000000C3F00000203C736D01
:10216000616C6C3E3C6120687265663D2200000037
:1021700056000020223E5BCBA2D0C25D3C2F613EC8
:102180003C2F736D616C6C3E3C2F703E0A3C703E80
:102190003C6120687265663D220000002F30223EBF
:1021A000B9D8B1D5B5C6B9E23C2F613E3C703E000E
:1021B0002F31223EB4F2BFAAB5C6B9E23C2F613E30
:1021C0003C703E00D42300084C0000206C0000202E
:1021D00052000020B7FECEF1C6F7B3F5CABCBBAFC4
:1021E000B3C9B9A6A3A10A00800000204745542026
:1021F00000000000485454502F312E30203230302F
:10220000204F4B0D0A436F6E74656E742D547970B8
:10221000653A20746578742F68746D6C0D0A0D0A28
:102220003C68313E323030204F4B3C2F68313E000D
:102230002F200000485454502F312E30203230309F
:10224000204F4B0D0A436F6E74656E742D54797078
:10225000653A20746578742F68746D6C0D0A0D0AE8
:10226000000000003C703E55736167653A20000035
:1022700070617373776F72643C2F703E00000000D2
:102280007000002030B505460020034600E05B1CCE
:10229000934205D2EC5CC85C201A01D1002CF6D127
:1022A00030BD0000064C074D06E0E06840F0010339
:1022B00094E8070098471034AC42F6D3FDF71AFFB4
:1022C0007C2400089C2400080FB4054B10B503A91A
:1022D000044A029800F017F810BC5DF814FB0000E7
:1022E000E91300087C00002002E008C8121F08C1A2
:1022F000002AFAD170477047002001E001C1121F87
:10230000002AFBD170472DE9F84F054692469946C1
:102310008846002758E0252801D0514623E00022B6
:1023200015F8011F10462E2915D115F8011F04229A
:102330002A290DD06FF02F032978A1F13004092C40
:1023400009D800EB800003EB400008446D1CF3E764
:1023500058F8040B6D1C2B78CBB3632B08D0732B70
:1023600010D0514618464A46904707F101072AE027
:1023700058F8043B8DF8003000218DF801106E46AE
:10238000012103E058F8046B4FF0FF3152074FF082
:10239000000401D409E0641C84420BDA8C42FADBAD
:1023A000325D002AF7D105E0641C8C42FCDB305D15
:1023B0000028F9D1274404E016F8010B51464A469B
:1023C0009047641EF8D26D1C28780028A3D13846A7
:1023D000BDE8F88F3C2F63656E7465723E3C687291
:1023E0003E3C62723E2A2A2A2A2A2A2A2A2A2A2A93
:1023F0002A2A2A2A2A5E5F5E20BBB6D3ADC4FACA57
:10240000B9D3C3D6C7C4DCBCD2BED3B9DCC0EDCF10
:10241000B5CDB3205E5F5E2A2A2A2A2A2A2A2A2AD2
:102420002A2A2A2A2A2A2A0A00000000485454503C
:102430002F312E302034303120556E617574686F25
:1024400072697A65640D0A436F6E74656E742D54FB
:102450007970653A20746578742F68746D6C0D0A14
:102460000D0A3C68313E34303120556E6175746818
:102470006F72697A65643C2F68313E009C240008C5
:102480000000002080000000E82200081C25000851
:1024900080000020E0070000F822000800A24A04A3
:1024A0000000000000000000010203040607080904
:1024B00000000000010203040102030406070809EA
:1024C00002040608000000000000000000000000F8
:1024D0005000000000000000000000000A000000A2
:1024E0000000000000000000545558100024C0A84F
:1024F00001B1687474703A2F2F3139322E31363869
:102500002E312E3137372F0050000000B00400006C
:0C2510003132333435360000000000008A
:04000005080000ED02
:00000001FF
